{
  "contractName": "CoinFlip",
  "abi": [
    {
      "inputs": [],
      "stateMutability": "nonpayable",
      "type": "constructor"
    },
    {
      "anonymous": false,
      "inputs": [
        {
          "indexed": false,
          "internalType": "address",
          "name": "player",
          "type": "address"
        }
      ],
      "name": "NeedToWait",
      "type": "event"
    },
    {
      "anonymous": false,
      "inputs": [
        {
          "indexed": false,
          "internalType": "address",
          "name": "winner",
          "type": "address"
        },
        {
          "indexed": false,
          "internalType": "address",
          "name": "loser",
          "type": "address"
        },
        {
          "indexed": false,
          "internalType": "uint256",
          "name": "result",
          "type": "uint256"
        }
      ],
      "name": "Result",
      "type": "event"
    },
    {
      "inputs": [],
      "name": "balance",
      "outputs": [
        {
          "internalType": "uint256",
          "name": "",
          "type": "uint256"
        }
      ],
      "stateMutability": "view",
      "type": "function"
    },
    {
      "inputs": [],
      "name": "betPrice",
      "outputs": [
        {
          "internalType": "uint256",
          "name": "",
          "type": "uint256"
        }
      ],
      "stateMutability": "view",
      "type": "function"
    },
    {
      "inputs": [],
      "name": "firstHead",
      "outputs": [
        {
          "internalType": "uint256",
          "name": "",
          "type": "uint256"
        }
      ],
      "stateMutability": "view",
      "type": "function"
    },
    {
      "inputs": [],
      "name": "firstTail",
      "outputs": [
        {
          "internalType": "uint256",
          "name": "",
          "type": "uint256"
        }
      ],
      "stateMutability": "view",
      "type": "function"
    },
    {
      "inputs": [],
      "name": "gamesCount",
      "outputs": [
        {
          "internalType": "uint256",
          "name": "",
          "type": "uint256"
        }
      ],
      "stateMutability": "view",
      "type": "function"
    },
    {
      "inputs": [],
      "name": "headsWins",
      "outputs": [
        {
          "internalType": "uint256",
          "name": "",
          "type": "uint256"
        }
      ],
      "stateMutability": "view",
      "type": "function"
    },
    {
      "inputs": [],
      "name": "lastHead",
      "outputs": [
        {
          "internalType": "uint256",
          "name": "",
          "type": "uint256"
        }
      ],
      "stateMutability": "view",
      "type": "function"
    },
    {
      "inputs": [],
      "name": "lastTail",
      "outputs": [
        {
          "internalType": "uint256",
          "name": "",
          "type": "uint256"
        }
      ],
      "stateMutability": "view",
      "type": "function"
    },
    {
      "inputs": [],
      "name": "tailsWins",
      "outputs": [
        {
          "internalType": "uint256",
          "name": "",
          "type": "uint256"
        }
      ],
      "stateMutability": "view",
      "type": "function"
    },
    {
      "inputs": [
        {
          "internalType": "uint256",
          "name": "coinOption",
          "type": "uint256"
        }
      ],
      "name": "play",
      "outputs": [],
      "stateMutability": "payable",
      "type": "function"
    },
    {
      "inputs": [
        {
          "internalType": "address",
          "name": "player",
          "type": "address"
        }
      ],
      "name": "isPlayerInQueue",
      "outputs": [
        {
          "internalType": "bool",
          "name": "",
          "type": "bool"
        }
      ],
      "stateMutability": "view",
      "type": "function"
    }
  ],
  "bytecode": "0x608060405260006001556702c68af0bb14000060025560006003556000600455600060055560006006556001600a556000600b556001600c556000600d5534801561004957600080fd5b50336000806101000a81548173ffffffffffffffffffffffffffffffffffffffff021916908373ffffffffffffffffffffffffffffffffffffffff160217905550611119806100996000396000f3fe60806040526004361061009c5760003560e01c80638d0e5136116100645780638d0e51361461016957806398940117146101a6578063a26aac49146101d1578063b69ef8a8146101fc578063cfd8a17514610227578063fb632b7c146102525761009c565b806329ad1d47146100a157806354879955146100cc57806361c74b14146100f75780636898f82b146101225780638a8a291f1461013e575b600080fd5b3480156100ad57600080fd5b506100b661027d565b6040516100c39190610b48565b60405180910390f35b3480156100d857600080fd5b506100e1610283565b6040516100ee9190610b48565b60405180910390f35b34801561010357600080fd5b5061010c610289565b6040516101199190610b48565b60405180910390f35b61013c60048036038101906101379190610b94565b61028f565b005b34801561014a57600080fd5b5061015361076d565b6040516101609190610b48565b60405180910390f35b34801561017557600080fd5b50610190600480360381019061018b9190610c1f565b610773565b60405161019d9190610c67565b60405180910390f35b3480156101b257600080fd5b506101bb6107c9565b6040516101c89190610b48565b60405180910390f35b3480156101dd57600080fd5b506101e66107cf565b6040516101f39190610b48565b60405180910390f35b34801561020857600080fd5b506102116107d5565b60405161021e9190610b48565b60405180910390f35b34801561023357600080fd5b5061023c6107db565b6040516102499190610b48565b60405180910390f35b34801561025e57600080fd5b506102676107e1565b6040516102749190610b48565b60405180910390f35b60065481565b600d5481565b600c5481565b60025434146102d3576040517f08c379a00000000000000000000000000000000000000000000000000000000081526004016102ca90610cdf565b60405180910390fd5b60008114806102e25750600181145b610321576040517f08c379a000000000000000000000000000000000000000000000000000000000815260040161031890610d4b565b60405180910390fd5b61032a33610773565b1561036a576040517f08c379a000000000000000000000000000000000000000000000000000000000815260040161036190610db7565b60405180910390fd5b6000810361057057600c54600d5410156103de576103893360006107e7565b346001600082825461039b9190610e06565b925050819055507fa78f10b44f078356f6cf3def777c9eaa6b55313ea38f9a123c2f3b7c15d1c613336040516103d19190610e6b565b60405180910390a161056b565b60006103ea6001610936565b905060006103f6610ad4565b905060016004600082825461040b9190610e06565b92505081905550600081036104c35760016005600082825461042d9190610e06565b925050819055507ffe5030179a7033ff673de820e7a3a93e5d58987614dcc5578b567ce040262c0b33838360405161046793929190610e86565b60405180910390a13373ffffffffffffffffffffffffffffffffffffffff166108fc67058d15e1762800009081150290604051600060405180830381858888f193505050501580156104bd573d6000803e3d6000fd5b50610568565b6001600660008282546104d69190610e06565b925050819055507ffe5030179a7033ff673de820e7a3a93e5d58987614dcc5578b567ce040262c0b82338360405161051093929190610e86565b60405180910390a18173ffffffffffffffffffffffffffffffffffffffff166108fc67058d15e1762800009081150290604051600060405180830381858888f19350505050158015610566573d6000803e3d6000fd5b505b50505b61076a565b600a54600b5410156105dc576105873360016107e7565b34600160008282546105999190610e06565b925050819055507fa78f10b44f078356f6cf3def777c9eaa6b55313ea38f9a123c2f3b7c15d1c613336040516105cf9190610e6b565b60405180910390a1610769565b60006105e86000610936565b905060006105f4610ad4565b90506001600460008282546106099190610e06565b92505081905550600081036106c15760016005600082825461062b9190610e06565b925050819055507ffe5030179a7033ff673de820e7a3a93e5d58987614dcc5578b567ce040262c0b82338360405161066593929190610e86565b60405180910390a18173ffffffffffffffffffffffffffffffffffffffff166108fc67058d15e1762800009081150290604051600060405180830381858888f193505050501580156106bb573d6000803e3d6000fd5b50610766565b6001600660008282546106d49190610e06565b925050819055507ffe5030179a7033ff673de820e7a3a93e5d58987614dcc5578b567ce040262c0b33838360405161070e93929190610e86565b60405180910390a13373ffffffffffffffffffffffffffffffffffffffff166108fc67058d15e1762800009081150290604051600060405180830381858888f19350505050158015610764573d6000803e3d6000fd5b505b50505b5b50565b60055481565b6000600760008373ffffffffffffffffffffffffffffffffffffffff1673ffffffffffffffffffffffffffffffffffffffff16815260200190815260200160002060009054906101000a900460ff169050919050565b600a5481565b600b5481565b60015481565b60025481565b60045481565b60008103610862576001600b60008282546108029190610e06565b925050819055508160086000600b54815260200190815260200160002060006101000a81548173ffffffffffffffffffffffffffffffffffffffff021916908373ffffffffffffffffffffffffffffffffffffffff1602179055506108da565b600181036108d9576001600d600082825461087d9190610e06565b925050819055508160096000600d54815260200190815260200160002060006101000a81548173ffffffffffffffffffffffffffffffffffffffff021916908373ffffffffffffffffffffffffffffffffffffffff1602179055505b5b6001600760008473ffffffffffffffffffffffffffffffffffffffff1673ffffffffffffffffffffffffffffffffffffffff16815260200190815260200160002060006101000a81548160ff0219169083151502179055505050565b60008082036109dd57600a54600b541015610986576040517f08c379a000000000000000000000000000000000000000000000000000000000815260040161097d90610f09565b60405180910390fd5b60086000600a54815260200190815260200160002060009054906101000a900473ffffffffffffffffffffffffffffffffffffffff1690506001600a60008282546109d19190610e06565b92505081905550610a77565b600c54600d541015610a24576040517f08c379a0000000000000000000000000000000000000000000000000000000008152600401610a1b90610f75565b60405180910390fd5b60096000600c54815260200190815260200160002060009054906101000a900473ffffffffffffffffffffffffffffffffffffffff1690506001600c6000828254610a6f9190610e06565b925050819055505b6000600760008373ffffffffffffffffffffffffffffffffffffffff1673ffffffffffffffffffffffffffffffffffffffff16815260200190815260200160002060006101000a81548160ff021916908315150217905550919050565b600060036000815480929190610ae990610f95565b919050555060024233600354604051602001610b0793929190611046565b6040516020818303038152906040528051906020012060001c610b2a91906110b2565b905090565b6000819050919050565b610b4281610b2f565b82525050565b6000602082019050610b5d6000830184610b39565b92915050565b600080fd5b610b7181610b2f565b8114610b7c57600080fd5b50565b600081359050610b8e81610b68565b92915050565b600060208284031215610baa57610ba9610b63565b5b6000610bb884828501610b7f565b91505092915050565b600073ffffffffffffffffffffffffffffffffffffffff82169050919050565b6000610bec82610bc1565b9050919050565b610bfc81610be1565b8114610c0757600080fd5b50565b600081359050610c1981610bf3565b92915050565b600060208284031215610c3557610c34610b63565b5b6000610c4384828501610c0a565b91505092915050565b60008115159050919050565b610c6181610c4c565b82525050565b6000602082019050610c7c6000830184610c58565b92915050565b600082825260208201905092915050565b7f496e76616c696420707269636500000000000000000000000000000000000000600082015250565b6000610cc9600d83610c82565b9150610cd482610c93565b602082019050919050565b60006020820190508181036000830152610cf881610cbc565b9050919050565b7f496e76616c696420636f696e206f7074696f6e00000000000000000000000000600082015250565b6000610d35601383610c82565b9150610d4082610cff565b602082019050919050565b60006020820190508181036000830152610d6481610d28565b9050919050565b7f596f752061726520696e20717565756520616c72656164790000000000000000600082015250565b6000610da1601883610c82565b9150610dac82610d6b565b602082019050919050565b60006020820190508181036000830152610dd081610d94565b9050919050565b7f4e487b7100000000000000000000000000000000000000000000000000000000600052601160045260246000fd5b6000610e1182610b2f565b9150610e1c83610b2f565b9250827fffffffffffffffffffffffffffffffffffffffffffffffffffffffffffffffff03821115610e5157610e50610dd7565b5b828201905092915050565b610e6581610be1565b82525050565b6000602082019050610e806000830184610e5c565b92915050565b6000606082019050610e9b6000830186610e5c565b610ea86020830185610e5c565b610eb56040830184610b39565b949350505050565b7f4865616420717565756520697320656d70747900000000000000000000000000600082015250565b6000610ef3601383610c82565b9150610efe82610ebd565b602082019050919050565b60006020820190508181036000830152610f2281610ee6565b9050919050565b7f5461696c20717565756520697320456d70747900000000000000000000000000600082015250565b6000610f5f601383610c82565b9150610f6a82610f29565b602082019050919050565b60006020820190508181036000830152610f8e81610f52565b9050919050565b6000610fa082610b2f565b91507fffffffffffffffffffffffffffffffffffffffffffffffffffffffffffffffff8203610fd257610fd1610dd7565b5b600182019050919050565b6000819050919050565b610ff8610ff382610b2f565b610fdd565b82525050565b60008160601b9050919050565b600061101682610ffe565b9050919050565b60006110288261100b565b9050919050565b61104061103b82610be1565b61101d565b82525050565b60006110528286610fe7565b602082019150611062828561102f565b6014820191506110728284610fe7565b602082019150819050949350505050565b7f4e487b7100000000000000000000000000000000000000000000000000000000600052601260045260246000fd5b60006110bd82610b2f565b91506110c883610b2f565b9250826110d8576110d7611083565b5b82820690509291505056fea2646970667358221220dd9bf7f00805081d39fa4ffcc0f4f9f359c37e6dfe4a3e68b22fe62060578e0564736f6c634300080d0033",
  "immutableReferences": {},
  "source": "// SPDX-License-Identifier: MIT\npragma solidity >=0.4.22 <0.9.0;\n\ncontract CoinFlip {\n    // owner\n    address private owner;\n    uint256 public balance = 0;\n\n    // variables\n    uint256 public betPrice = 200000000000000000;\n    uint256 private randNonce = 0;\n\n    // stats\n    uint256 public gamesCount = 0;\n    uint256 public headsWins = 0;\n    uint256 public tailsWins = 0;\n\n    // virtual queues\n    mapping(address => bool) private playersInQueue;\n    mapping(uint256 => address) private headsQueue;\n    mapping(uint256 => address) private tailsQueue;\n    uint256 public firstHead = 1;\n    uint256 public lastHead = 0;\n    uint256 public firstTail = 1;\n    uint256 public lastTail = 0;\n\n    event NeedToWait(address player);\n    event Result(address winner, address loser, uint256 result);\n\n    modifier onlyOwner() {\n        require(msg.sender == owner, \"Only owner can call this.\");\n        _;\n    }\n\n    constructor() {\n        owner = msg.sender;\n    }\n\n    function play(uint256 coinOption) public payable {\n        require(msg.value == betPrice, \"Invalid price\");\n        require(coinOption == 0 || coinOption == 1, \"Invalid coin option\");\n        require(!isPlayerInQueue(msg.sender), \"You are in queue already\");\n        if (coinOption == 0) {\n            if (lastTail < firstTail) {\n                enqueue(msg.sender, 0);\n                balance += msg.value;\n                emit NeedToWait(msg.sender);\n            } else {\n                address player = dequeue(1);\n                uint256 result = flipCoin();\n                gamesCount += 1;\n                if (result == 0) {\n                    headsWins += 1;\n                    emit Result(msg.sender, player, result);\n                    payable(msg.sender).transfer(400000000000000000);\n                } else {\n                    tailsWins += 1;\n                    emit Result(player, msg.sender, result);\n                    payable(player).transfer(400000000000000000);\n                }\n            }\n        } else {\n            if (lastHead < firstHead) {\n                enqueue(msg.sender, 1);\n                balance += msg.value;\n                emit NeedToWait(msg.sender);\n            } else {\n                address player = dequeue(0);\n                uint256 result = flipCoin();\n                gamesCount += 1;\n                if (result == 0) {\n                    headsWins += 1;\n                    emit Result(player, msg.sender, result);\n                    payable(player).transfer(400000000000000000);\n                } else {\n                    tailsWins += 1;\n                    emit Result(msg.sender, player, result);\n                    payable(msg.sender).transfer(400000000000000000);\n                }\n            }\n        }\n    }\n\n    function enqueue(address player, uint256 queue) private {\n        if (queue == 0) {\n            lastHead += 1;\n            headsQueue[lastHead] = player;\n        } else if (queue == 1) {\n            lastTail += 1;\n            tailsQueue[lastTail] = player;\n        }\n        playersInQueue[player] = true;\n    }\n\n    function dequeue(uint256 queue) private returns (address player) {\n        if (queue == 0) {\n            require(lastHead >= firstHead, \"Head queue is empty\");\n            player = headsQueue[firstHead];\n            firstHead += 1;\n        } else {\n            require(lastTail >= firstTail, \"Tail queue is Empty\");\n            player = tailsQueue[firstTail];\n            firstTail += 1;\n        }\n        playersInQueue[player] = false;\n    }\n\n    function flipCoin() private returns (uint256 result) {\n        randNonce++;\n        return\n            uint256(\n                keccak256(\n                    abi.encodePacked(block.timestamp, msg.sender, randNonce)\n                )\n            ) % 2;\n    }\n\n    function isPlayerInQueue(address player) public view returns (bool) {\n        return playersInQueue[player];\n    }\n}\n",
  "sourcePath": "C:\\Users\\miguelleonmarti\\Desktop\\Universidad\\coin-flip\\contracts\\CoinFlip.sol",
  "compiler": {
    "name": "solc",
    "version": "0.8.13+commit.abaa5c0e.Emscripten.clang"
  },
  "schemaVersion": "3.4.7",
  "updatedAt": "2022-06-03T15:24:40.822Z",
  "devdoc": {
    "kind": "dev",
    "methods": {},
    "version": 1
  },
  "userdoc": {
    "kind": "user",
    "methods": {},
    "version": 1
  }
}